:020000040800F2
:1000000000000120C5020008CB020008CF02000852
:1000100041030008450300088D03000800000000AC
:10002000000000000000000000000000D5030008F0
:10003000D903000800000000DD030008E103000808
:10004000F1030008F1030008F1030008F1030008C0
:10005000F1030008F1030008B90B0008F1030008E0
:10006000F1030008F1030008F1030008F1030008A0
:10007000F1030008F1030008F1030008F103000890
:10008000F1030008F1030008F1030008000000007C
:10009000000000000000000000000000F103000864
:1000A000F1030008F1030008F1030008F103000860
:1000B000F1030008F1030008F1030008F103000850
:1000C000F1030008F1030008F1030008F103000840
:1000D000F10300087D0600089906000800000000F2
:1000E000F1030008F1030008F1030008000000001C
:1000F000000000000000000000000000F103000804
:1001000000000000F1030008F1030008F1030008FB
:1001100000000000000000000000000000000000DF
:10012000DD0B0008F1030008F1030008F1030008EB
:10013000F1030008000000000000000000000000C3
:10014000000000000000000000000000F1030008B3
:10015000F1030008F1030008F1030008B5060008E8
:10016000F1030008F1030008000000000000000097
:10017000000000000000000000000000000000007F
:1001800000000000F1030008000000000000000073
:10019000F103000800B583B000F0BAF9384B394AD2
:1001A0001360394A1360394900E02146384B9942BF
:1001B0000BD20A684B6801F10C0488689842F4D9A4
:1001C0001168196004330432F8E72E4B1A68314B7A
:1001D0009A4200D0FEE72C4B1A682F4B9A42F9D175
:1001E000274B2E4A13602E4A13602E4B05E0002049
:1001F000106004329342FAD80B462B4A934204D241
:10020000194651F8082B5B68F4E7244B1B6813B9B7
:10021000234B1B6803B1FEE700F0EEFC694601A822
:1002200000F022F9214C224BE41AA4100025AC4224
:1002300014DC204C204BE41AA4100025AC4213DC43
:100240000099019800F0DAFC05461C4C1C4BE41A9E
:10025000A410002C0EDC284600F0E2F8144B53F8F2
:10026000253098470135E2E7134B53F8253098477E
:100270000135E3E7013C124B53F824309847E8E797
:10028000BABADECA00000020343C0020F4030008A3
:100290000C0400087856341232547698383C00200A
:1002A000003D00200C0400081C0400081C04000889
:1002B0001C0400081C0400081C0400081C0400089E
:1002C0001C04000808B5FFF765FF00BEFEE71EF03E
:1002D000040F0CBFEFF30880EFF309807146414A29
:1002E00010472DE9F04182B004468846124B5E6B00
:1002F0009F6B9D6A1B6B13F0020F03D00E4BDB6AE2
:10030000002B0CDB0D4800F0B7F8CDF800803B4621
:1003100032462946204600F007F900BEFEE74BF6BC
:10032000AB6100F07BF90028ECD0034B4FF00042AA
:10033000DA6202B0BDE8F08100ED00E0041A0008C6
:1003400000BEFEE71EF0040F0CBFEFF30880EFF3D2
:1003500009807146244A10472DE9F04182B00446D5
:100360008846084B5E6B9F6B9D6A074800F084F8D7
:10037000CDF800803B4632462946204600F0D4F8AE
:1003800000BEFEE700ED00E0141A00081EF0040FA6
:100390000CBFEFF30880EFF309807146134A104752
:1003A0002DE9F04182B004468846084B5E6B9F6B96
:1003B0009D6A074800F060F8CDF800803B46324661
:1003C0002946204600F0B0F800BEFEE700ED00E050
:1003D000201A000800BEFEE700BEFEE700BEFEE7F2
:1003E00070470000E302000859030008A103000859
:0403F00000BEFEE766
:1003F400781A000800000020383C0020781A000811
:100404000000001000000010383C0020043D0020D3
:080414000000001000000010C0
:10042000FEE7000008B503460C4A12685AB10B4AB1
:100430001068033323F003030344094A934206D8A8
:10044000064A136008BD054A06491160EFE700F04F
:10045000D1FD0C2303604FF0FF30F3E73C3C00205C
:1004600000FC0020043D002001230360014B0B60D1
:10047000704700BF040000200FB400B583B004AB88
:1004800053F8042B01938021064800F0E5FD002875
:1004900003DD0146034800F037F803B05DF804EBD4
:1004A00004B07047443C00202DE9F04385B0044679
:1004B0000F4643560BB10E461EE004252846214642
:1004C000ABBE0446384605B0BDE8F08314F9011B05
:1004D00004AA1A4402F8101C0133AB42F6D304AA52
:1004E0001344002203F8102C4FF00408E94640465C
:1004F0004946ABBE8046761B002EE3D03546102E13
:1005000028BF10250023E8E708B5FFF7CDFF08BD99
:1005100008B500F093F8024A024B9A6008BD00BF8C
:100520000000000800ED00E0F8B504460D4617464F
:100530001E462748FFF7A0FF21682648FFF79CFFCB
:1005400061682548FFF798FFA1682448FFF794FFEA
:10055000E1682348FFF790FF21692248FFF78CFFED
:1005600061692148FFF788FFA1692048FFF784FFF0
:10057000E1691F48FFF780FF1E48FFF77DFF29460E
:100580001D48FFF779FF1D4CE16A1D48FFF774FF16
:10059000216B1C48FFF770FFE16B1B48FFF76CFFF6
:1005A00015F0800F0AD115F4004F0CD11748FFF752
:1005B00063FF06991648FFF75FFFF8BD39461548F7
:1005C000FFF75AFFEFE731461348FFF755FFEDE716
:1005D000E8180008F8180008081900081819000899
:1005E0002819000838190008481900085819000887
:1005F00068190008781900088419000800ED00E067
:1006000094190008A4190008B4190008E419000896
:10061000EC190008C4190008D419000883691A8865
:100620008A4201D0002070470268033A012A03D8A9
:100630000233836101207047002070470C4B1A6819
:1006400042F001021A60002199601A6822F0847257
:1006500022F480321A60074A5A601A6822F4802213
:100660001A60D960044B4FF000629A60704700BF77
:10067000003802401030002400ED00E008B5044BC3
:1006800000221A60034B1B6803B1984708BD00BFE6
:1006900000100140C43C002008B5044B00221A6041
:1006A000034B1B6803B1984708BD00BF00440040DE
:1006B000C83C002008B5044B00221A60034B1B689D
:1006C00003B1984708BD00BF00140140CC3C002096
:1006D00070B505460C460023CB60437ABBB1012BB5
:1006E00032D06A7A2B791B0343EAC233AA7943EAF0
:1006F0008223EA7943EA4223E3602A7A012A47D037
:10070000002A41D0022A47D00023236070BD03682D
:100710009A009B0F22A1D1E9000100F0EBFA224ED2
:10072000A6FB00325109642202FB1102130132338D
:10073000A6FB03235B0903F0F00202EB011203F0B6
:100740000F031344A360CCE702680021921841EB29
:10075000010313A1D1E9000100F0CCFA124EA6FB6F
:1007600000325109642202FB1102D3003233A6FB8E
:1007700003235B095A0002F4F87202EB011203F042
:1007800007031344A360ACE743F00803E360BBE74F
:1007900043F00403E360B7E743F00C03E360B3E71F
:1007A00040BE4025000000001F85EB51C36843F4A4
:1007B0000053C36070474160036813F0400FFBD0E3
:1007C00023F0400303607047036813F0200FFBD051
:1007D000007970471A4B1A6822F400221A609A684E
:1007E00022F002029A609A6842F001029A609A68C6
:1007F00022F0F0029A609A689A609A6822F4E052B5
:100800009A609A689A609A6822F460429A609A683C
:100810009A601A6842F480221A601A6842F48032A0
:100820001A60074B1B6813F4003FFAD0044B1A6898
:1008300022F001021A601A6822F080721A60704772
:10084000003802400138072844D8DFE800F0040CE3
:10085000141C242C343C2048036B012202FA01F1C1
:100860001943016370471C48436B012202FA01F1EE
:100870001943416370471848036C012202FA01F1E1
:100880001943016470471448436C012202FA01F1D4
:100890001943416470471048036D012202FA01F1C7
:1008A0001943016570470C48436D012202FA01F1BA
:1008B0001943416570470848036E012202FA01F1AD
:1008C0001943016670470448436E012202FA01F1A0
:1008D00019434166704700BF003802400F2933D8E2
:1008E000032A31D810B4012812D018B102281DD023
:1008F00010BC7047154B1868490003248C4020EA4F
:1009000004001860186802FA01F101431960EFE76A
:100910000F4B1868490003248C4020EA040018603B
:10092000186802FA01F101431960E1E7094B186800
:10093000490003248C4020EA04001860186802FA79
:1009400001F101431960D3E7704700BF0000024086
:100950000004024000080240012A07D0002A3DD1CD
:1009600001282CD018B3022831D0704701280CD0B0
:1009700010B1022812D0704719484368012202FAC8
:1009800001F123EA010141607047164843680122E2
:1009900002FA01F123EA01014160704712484368FD
:1009A000012202FA01F123EA0101416070470C487B
:1009B0004368012202FA01F1194341607047094876
:1009C0004368012202FA01F1194341607047064869
:1009D0004368012202FA01F119434160704700BFE8
:1009E0000000024000040240000802400F2933D8F2
:1009F000032A31D810B4012812D018B102281DD012
:100A000010BC7047154B9868490003248C4020EABD
:100A100004009860986802FA01F101439960EFE7D9
:100A20000F4B9868490003248C4020EA040098602A
:100A3000986802FA01F101439960E1E7094B98686F
:100A4000490003248C4020EA04009860986802FA68
:100A500001F101439960D3E7704700BF00000240F5
:100A6000000402400008024001280BD010B1022807
:100A700010D070470B484369012202FA01F1594036
:100A80004161704708484369012202FA01F1594067
:100A90004161704705484369012202FA01F159405A
:100AA000416170470000024000040240000802401B
:100AB00030B4012828D018B1022849D030BC704782
:100AC000072913D9A1F10803DBB2072BF6D8324B63
:100AD000186A0839890007248C4020EA040018624B
:100AE000186A02FA01F101431962E7E72A4B186A12
:100AF0008D000721A94020EA01011962186A02FA53
:100B000005F101431962D9E7072913D9A1F10803B7
:100B1000DBB2072BD2D8214B186A08398900072489
:100B20008C4020EA04001862186A02FA01F10143BD
:100B30001962C3E7194B186A8C000721A14020EA0B
:100B400001011962186A02FA04F101431962B5E75A
:100B5000072913D9A1F10803DBB2072BAED8104B3C
:100B6000186A0839890007248C4020EA04001862BA
:100B7000186A02FA01F1014319629FE7084B1C6AE7
:100B800088000721814024EA010119621C6A02FAE7
:100B900000F12143196291E7000002400004024085
:100BA0000008024003494B69012202FA00F00343A6
:100BB0004B617047003C014008B50020FFF7F2FF91
:100BC000024B1B6803B1984708BD00BFD03C002012
:100BD000836843F0200383607047000008B5044831
:100BE000FFF7F6FF034B1B6803B1984708BD00BF32
:100BF00000640240D43C00207047000030B585B04E
:100C0000FFF7E8FD00210120FFF71CFE1121032062
:100C1000FFF718FE012200210846FFF75FFE0122C0
:100C200000210846FFF798FE002211461046FFF704
:100C3000DDFE022211460020FFF750FE01220221B4
:100C40000020FFF789FE002202211046FFF7CEFEAA
:100C5000072202210020FFF72BFF022203210020A0
:100C6000FFF73CFE012203210020FFF775FE002262
:100C700003211046FFF7BAFE072203210020FFF7E9
:100C800017FF194A01AB07CA83E80700174C214632
:100C90001846FFF71DFD2046FFF788FD012303BB23
:100CA00005B030BD1148FFF786FD0134E4B2104AAB
:100CB000962303FB0523195D0029F3D10846FFF7AE
:100CC000D3FE00210948FFF776FD0848FFF77CFDB9
:100CD0004B28FAD10135EDB20023652DDFD8002471
:100CE000E5E70025F8E700BF301A0008004400409F
:100CF0000C00002053B94AB9002908BF00281CBFC6
:100D00004FF0FF314FF0FF3000F072B9ADF1080C39
:100D10006DE904CE00F006F8DDF804E0DDE9022319
:100D200004B070472DE9F047089E04468846002B22
:100D30004BD18A42154667D9B2FA82F24AB1C2F162
:100D4000200701FA02F320FA07F7954047EA030863
:100D500094404FEA154E230CB8FBFEF71FFA85FCB2
:100D60000EFB178843EA084307FB0CF1994209D9A7
:100D7000EB1807F1FF3080F01B81994240F2188197
:100D8000023F2B445B1AA4B2B3FBFEF00EFB103300
:100D900044EA034400FB0CFCA44509D92C1900F1DA
:100DA000FF3380F00781A44540F2048102382C44CF
:100DB00040EA0740A4EB0C0400271EB1D4400023F6
:100DC000C6E900433946BDE8F0878B4209D9002EB9
:100DD00000F0EB800027C6E9000138463946BDE83F
:100DE000F087B3FA83F7002F47D18B4202D38242B8
:100DF00000F2FA80841A61EB030301209846002E6A
:100E0000E0D0C6E90048DDE702B9FFDEB2FA82F2BF
:100E1000002A40F08F80491B4FEA154E1FFA85F8D3
:100E20000127B1FBFEFC230C0EFB1C1143EA01431E
:100E300008FB0CF1994207D9EB180CF1FF3002D2F4
:100E4000994200F2CD808446591AA3B2B1FBFEF05C
:100E50000EFB101443EA044408FB00F8A04507D930
:100E60002C1900F1FF3302D2A04500F2B6801846DB
:100E7000A4EB080440EA0C409FE7C7F1200CBB40FC
:100E800022FA0CFE4EEA030E01FA07F420FA0CF5E2
:100E900021FA0CF34FEA1E482543B3FBF8F92C0C5A
:100EA00008FB19331FFA8EFA44EA034309FB0AF4DC
:100EB0009C4202FA07F200FA07F10BD91EEB03037A
:100EC00009F1FF3080F087809C4240F28480A9F1D4
:100ED000020973441B1BADB2B3FBF8F008FB1033DF
:100EE00045EA034400FB0AFAA24508D91EEB0404B4
:100EF00000F1FF336BD2A24569D90238744440EA4D
:100F00000940A0FB0289A4EB0A044C45C2464B46AB
:100F100054D351D0002E69D0B1EB0A0564EB030421
:100F200004FA0CFCFD40FC404CEA0505C6E90054FF
:100F3000002747E7C2F1200320FA03F7954001FAA2
:100F400002F021FA03F34FEA154E3843010CB3FBCC
:100F5000FEF71FFA85F80EFB173341EA034107FB42
:100F600008F38B4204FA02F407D9691807F1FF3C31
:100F70002FD28B422DD9023F2944CB1A81B2B3FB29
:100F8000FEF00EFB103341EA034100FB08F38B42F5
:100F900007D9691800F1FF3C17D28B4215D90238E6
:100FA0002944C91A40EA07473BE73746304609E774
:100FB0000746E7E61846FBE64145ABD2B8EB020A26
:100FC00069EB0E0201381346A4E76046E9E71846CC
:100FD00095E76746D1E781467CE702382C4447E72E
:100FE000ACF1020C2B442FE7384608E73746E9E618
:100FF000704700BF014B1868704700BFD03B00200E
:1010000030B5141E05469BB0184605DA8B232B60BD
:101010004FF0FF301BB030BD4FF40273ADF80C3011
:1010200014BF04F1FF332346029305934FF6FF7379
:1010300000910491ADF80E3002461E9B6946284689
:1010400000F072F8431CBCBF8B232B60002CE1D056
:10105000009B00221A70DDE707B5009313460A468D
:10106000014603480068FFF7CBFF03B05DF804FBBF
:10107000D03B00202DE9F0478E689E4282460C4608
:101080009046994637D88A8912F4906F31D02568F6
:1010900009696F1A6569022305EB450595FBF3F5B0
:1010A00009F101033B449D4238BF1D46530530D52D
:1010B000294600F07FFB064650B90C23CAF80030E1
:1010C000A38943F04003A3814FF0FF30BDE8F087D0
:1010D0003A46216900F0FCFAA38923F4906343F0B7
:1010E0008003A381266165613E44ED1B2660A560F7
:1010F0004E464E4500D94E4632464146206800F0E5
:10110000F2FAA3689B1BA36023681E44266000209C
:10111000DCE72A4600F0A8FB06460028E2D1216958
:10112000504600F0F9FAC8E72DE9F04F9DB080462F
:1011300003938B891D060C4616460FD50B696BB9B8
:10114000402100F037FB2060206128B90C23C8F84B
:1011500000304FF0FF30C7E0402363610023099364
:1011600020238DF8293030238DF82A304FF0010BE1
:1011700037463D4615F8013B0BB1252B3ED1B7EB69
:10118000060A0BD05346324621464046FFF772FF0F
:10119000013000F0A480099B534409933B78002B55
:1011A00000F09D8000234FF0FF32CDE9052304932A
:1011B00007938DF853301A932F46052217F8011B19
:1011C0004F4800F035FA049BD0B9D90644BF20221D
:1011D0008DF853201A0744BF2B228DF853202A780C
:1011E0002A2A15D0079A2F4600200A25394611F8D9
:1011F000013B303B092B4DD9B8B10FE02F46B8E782
:101200003F4A801A0BFA00F0184304903D46D3E79A
:10121000039A111D12680391002A01DB079204E072
:10122000524243F00203079204933B782E2B0CD1D9
:101230007B782A2B33D1039B1A1D1B680392002B4A
:10124000B8BF4FF0FF33023705932E4D3978032294
:10125000284600F0EDF938B14023401B03FA00F0B6
:10126000049B034301370493397827488DF82810ED
:1012700006227E1C00F0DCF9002838D0234B13BB7B
:10128000039B073323F0070308330393099B4B4465
:1012900009936DE705FB023201200F46A6E7002304
:1012A0000137059319460A25384610F8012B303AC4
:1012B000092A03D9002BC8D00591C6E705FB0121F7
:1012C00001230746F0E703AB00932246104B04A925
:1012D0004046AFF30080B0F1FF3F8146D6D1A389ED
:1012E0005B063FF536AF09981DB0BDE8F08F03AB44
:1012F00000932246064B04A9404600F081F8EAE735
:101300003C1A0008421A0008461A000800000000B3
:10131000751000082DE9F04791461F468A680B6951
:10132000DDF820809342B8BF1346C9F8003091F829
:10133000432006460C4612B10133C9F80030236839
:10134000990642BFD9F800300233C9F80030256849
:1013500015F0060507D104F1190AE368D9F8002051
:101360009B1AAB4228DC94F843302268003318BF44
:10137000012392062DD404F1430239463046C0477A
:10138000013020D02368E568D9F8002003F0060377
:10139000042B08BFAD1AA36822690CBF25EAE575C6
:1013A00000259342C4BF9B1AED184FF000091A3470
:1013B0004D451AD1002008E00123524639463046F7
:1013C000C047013003D14FF0FF30BDE8F087013551
:1013D000C3E7E1185A1C302081F84300224494F8F6
:1013E000451082F843100233C5E7012322463946EF
:1013F0003046C0470130E6D009F10109D8E70000C6
:101400002DE9F04301F1430C0C46097E85B06E29AD
:101410001746064698460C9A00F0B38022D86329F6
:1014200036D00AD8002900F0B980582900F083800E
:1014300004F1420584F8421032E0642901D06929A0
:10144000F6D120681368050603F104012AD51B684C
:101450001160002B03DA2D225B4284F843206F4891
:101460000A2239E0732900F09D8008D86F2920D026
:101470007029DDD1236843F02003236003E0752940
:1014800017D07829D4D1782384F84530644855E0C2
:101490001368191D1B68116004F1420584F842307D
:1014A00001238CE01B68116010F0400F18BF1BB2C5
:1014B000CFE713682568181D1060280601D51B6842
:1014C00002E06806FBD51B8854486F2914BF0A2226
:1014D0000822002184F843106568A560002DC0F241
:1014E0009580216821F004012160002B3DD1002D61
:1014F00040F08E806546082A0BD12368DB0708D5AB
:10150000236962689A42DEBF302305F8013C05F189
:10151000FF35ACEB05032361CDF800803B4603AA01
:1015200021463046FFF7F6FE01304DD14FF0FF3037
:1015300005B0BDE8F083394884F845101368216888
:101540001D1D1B6815600A060BD5CA0744BF41F074
:10155000200121601BB9226822F0200222601022A3
:10156000B7E74D0648BF9BB2EFE76546B3FBF2F124
:1015700002FB1133C35C05F8013D0B460029F5D190
:10158000B9E7136825686169181D106028061B6893
:1015900001D5196002E06A06FBD51980002323619A
:1015A0006546B9E71368191D11601D68626800215E
:1015B000284600F03DF808B1401B60606368236175
:1015C000002384F84330A7E723692A46394630468A
:1015D000C0470130AAD023689B0713D4E068039B5F
:1015E0009842B8BF1846A3E701234A463946304619
:1015F000C04701309AD00135E368039A9B1AAB4289
:10160000F2DCEBE7002504F11909F5E7002BACD17A
:10161000037884F8423004F142056CE74D1A000863
:101620005E1A00080000000000000000000000003A
:1016300001F0FF01102A2BDB10F0070F08D010F883
:10164000013B013A8B422DD010F0070F42B3F6D187
:10165000F0B441EA012141EA014122F007047FF0A0
:1016600000070023F0E80256083C85EA010586EAF7
:10167000010685FA47F5A3FA87F586FA47F6A5FA33
:1016800087F68EB9EED1F0BC01F0FF0102F007023F
:1016900032B110F8013B013A83EA010313B1F8D1EA
:1016A0000020704701387047002D06BF35460338CB
:1016B000073815F0010F07D1013015F4807F02BF04
:1016C000013015F4C03F0130F0BC0138704700BF55
:1016D00010B5431E0A44914200D110BD11F8014BD0
:1016E00003F8014FF7E7884210B501EB020307D872
:1016F000421E99420AD011F8014B02F8014FF8E757
:101700008342F5D98118D21AD34200D110BD13F803
:10171000014D01F8014DF7E738B50546002945D0E0
:1017200051F8043C0C1F002BB8BFE41800F0D2F8AD
:101730001F4A1368104633B9636014602846BDE839
:10174000384000F0C8B8A3420CD92168621893420F
:1017500004BF1A685B68636004BF521822600460AB
:10176000ECE713465A680AB1A242FAD91968581828
:10177000A0420BD120680144581882421960DDD183
:10178000106852685A6001441960D7E702D90C23E7
:101790002B60D3E7206821188A4204BF1168526881
:1017A000626004BF091821605C60C7E738BD00BFF4
:1017B000F43C002070B5CD1C25F0030508350C2D38
:1017C00038BF0C25002D064601DBA94203D90C23A6
:1017D0003360002070BD00F07DF8214A1468214676
:1017E00091B9204C23681BB9304600F063F82060A3
:1017F0002946304600F05EF8431C24D10C233360A8
:10180000304600F068F8E4E70B685B1B18D40B2B3C
:101810000FD90B60CD50CC18304600F05CF804F1C5
:101820000B00231D20F00700C31AD3D05A42E25008
:10183000D0E78C424B6816BF636013600C46EBE741
:101840000C464968CCE7C41C24F00304A04205D030
:10185000211A304600F02EF80130CFD02560DBE7AA
:10186000F43C0020F83C0020F8B5074614460E462C
:1018700021B91146BDE8F840FFF79CBF22B9FFF738
:101880004BFF25462846F8BD00F026F8A0420FD2AF
:1018900021463846FFF78EFF05460028F2D0314634
:1018A0002246FFF715FF31463846FFF735FFE9E7D7
:1018B0003546E7E738B5064C002305460846236061
:1018C000FEF7B0FD431C02D1236803B12B6038BD85
:1018D000FC3C00207047704751F8043C181F002B57
:1018E000BCBF0B58C0187047537461636B2066729D
:1018F000616D653A0A000000205230203D2020250D
:101900003038580A00000000205231203D202025A8
:101910003038580A00000000205232203D20202597
:101920003038580A00000000205233203D20202586
:101930003038580A0000000020523132203D202566
:101940003038580A00000000204C52203D2020254D
:101950003038580A00000000205043203D20202548
:101960003038580A0000000020505352203D2025F6
:101970003038580A000000004653522F4641523A70
:101980000A0000002043465352203D2020253038D5
:10199000580A00002048465352203D202025303868
:1019A000580A00002044465352203D20202530385C
:1019B000580A00002041465352203D20202530384F
:1019C000580A0000204D4D464152203D2025303818
:1019D000580A00002042464152203D202025303840
:1019E000580A00004D6973630A000000204C522F12
:1019F0004558435F52455455524E3D202530385886
:101A00000A0000005B486172644661756C745D0A8F
:101A1000000000005B4275734661756C745D0A00DE
:101A20005B55736167654661756C745D0A00000003
:101A3000802500000000000002010000232D302B53
:101A40002000686C4C0065666745464700303132BF
:101A50003334353637383941424344454600303116
:0F1A600032333435363738396162636465660076
:081A7000B4F2FF7F0100000049
:101A780078563412403C0020000000003A303230E2
:101A8800303030303430383030463200000000001A
:101A9800000000000000000000000000000000003E
:101AA800000000000000000000000000000000002E
:101AB800000000000000000000000000000000001E
:101AC800000000000000000000000000000000000E
:101AD80000000000000000000000000000000000FE
:101AE80000000000000000000000000000000000EE
:101AF80000000000000000000000000000000000DE
:101B080000000000000000000000000000000000CD
:101B180000003A313034303030303030303030300E
:101B28003132303631343230303038363534323084
:101B380030303836373432303030383834000000FE
:101B4800000000000000000000000000000000008D
:101B5800000000000000000000000000000000007D
:101B6800000000000000000000000000000000006D
:101B7800000000000000000000000000000000005D
:101B8800000000000000000000000000000000004D
:101B9800000000000000000000000000000000003D
:101BA80000000000000000003A313034303130309D
:101BB80030374434323030303837463432303030D1
:101BC80038393534323030303830303030303030E9
:101BD8003033310000000000000000000000000069
:101BE80000000000000000000000000000000000ED
:101BF80000000000000000000000000000000000DD
:101C080000000000000000000000000000000000CC
:101C180000000000000000000000000000000000BC
:101C280000000000000000000000000000000000AC
:101C380000000000000000000000000000003A3131
:101C48003034303230303030303030303030303086
:101C5800303030303030303030303030303030416B
:101C68004234323030303839420000000000000081
:101C7800000000000000000000000000000000005C
:101C8800000000000000000000000000000000004C
:101C9800000000000000000000000000000000003C
:101CA800000000000000000000000000000000002C
:101CB800000000000000000000000000000000001C
:101CC800000000000000000000000000000000000C
:101CD800000000003A313034303330303041443481
:101CE80032303030383030303030303030414634B7
:101CF80032303030384231343230303038393500D3
:101D080000000000000000000000000000000000CB
:101D180000000000000000000000000000000000BB
:101D280000000000000000000000000000000000AB
:101D3800000000000000000000000000000000009B
:101D4800000000000000000000000000000000008B
:101D5800000000000000000000000000000000007B
:101D6800000000000000000000003A313034303438
:101D78003030304335343230303038433534323017
:101D880030303843353432303030384335343230FF
:101D9800303038333400000000000000000000003C
:101DA800000000000000000000000000000000002B
:101DB800000000000000000000000000000000001B
:101DC800000000000000000000000000000000000B
:101DD80000000000000000000000000000000000FB
:101DE80000000000000000000000000000000000EB
:101DF80000000000000000000000000000000000DB
:101E08003A31303430353030304335343230303098
:101E1800384335343230303038433534323030306E
:101E28003843353432303030383234000000000066
:101E3800000000000000000000000000000000009A
:101E4800000000000000000000000000000000008A
:101E5800000000000000000000000000000000007A
:101E6800000000000000000000000000000000006A
:101E7800000000000000000000000000000000005A
:101E8800000000000000000000000000000000004A
:101E98000000000000003A31303430363030304332
:101EA80035343230303038433534323030303843DE
:101EB80035343230303038433534323030303831E0
:101EC80034000000000000000000000000000000D6
:101ED80000000000000000000000000000000000FA
:101EE80000000000000000000000000000000000EA
:101EF80000000000000000000000000000000000DA
:101F080000000000000000000000000000000000C9
:101F180000000000000000000000000000000000B9
:101F28000000000000000000000000003A313034DA
:101F38003037303030433534323030303843353450
:101F4800323030303843353432303030384335343D
:101F5800323030303830340000000000000000001B
:101F68000000000000000000000000000000000069
:101F78000000000000000000000000000000000059
:101F88000000000000000000000000000000000049
:101F98000000000000000000000000000000000039
:101FA8000000000000000000000000000000000029
:101FB8000000000000000000000000000000000019
:101FC80000003A3130343038303030433534323034
:101FD80030303843353432303030384335343230AD
:101FE800303038303030303030303030330000006E
:101FF80000000000000000000000000000000000D9
:1020080000000000000000000000000000000000C8
:1020180000000000000000000000000000000000B8
:1020280000000000000000000000000000000000A8
:102038000000000000000000000000000000000098
:102048000000000000000000000000000000000088
:1020580000000000000000003A31303430393030E0
:102068003030303030303030303030303030303068
:10207800303030303030303030433534323030303A
:1020880038313100000000000000000000000000AE
:102098000000000000000000000000000000000038
:1020A8000000000000000000000000000000000028
:1020B8000000000000000000000000000000000018
:1020C8000000000000000000000000000000000008
:1020D80000000000000000000000000000000000F8
:1020E80000000000000000000000000000003A317D
:1020F800303430413030304335343230303038438A
:10210800353432303030384335343230303038437B
:1021180035343230303038443400000000000000DC
:1021280000000000000000000000000000000000A7
:102138000000000000000000000000000000000097
:102148000000000000000000000000000000000087
:102158000000000000000000000000000000000077
:102168000000000000000000000000000000000067
:102178000000000000000000000000000000000057
:10218800000000003A3130343042303030433534CA
:1021980032303030384335343230303038433534EB
:1021A8003230303038433534323030303843340010
:1021B8000000000000000000000000000000000017
:1021C8000000000000000000000000000000000007
:1021D80000000000000000000000000000000000F7
:1021E80000000000000000000000000000000000E7
:1021F80000000000000000000000000000000000D7
:1022080000000000000000000000000000000000C6
:10221800000000000000000000003A313034304374
:102228003030304335343230303038433534323062
:10223800303038433534323030303843353432304A
:102248003030384234000000000000000000000078
:102258000000000000000000000000000000000076
:102268000000000000000000000000000000000066
:102278000000000000000000000000000000000056
:102288000000000000000000000000000000000046
:102298000000000000000000000000000000000036
:1022A8000000000000000000000000000000000026
:1022B8003A313034304430303043353432303030D5
:1022C80038433534323030303843353432303030BA
:1022D80038303030303030303042330000000000C9
:1022E80000000000000000000000000000000000E6
:1022F80000000000000000000000000000000000D6
:1023080000000000000000000000000000000000C5
:1023180000000000000000000000000000000000B5
:1023280000000000000000000000000000000000A5
:102338000000000000000000000000000000000095
:102348000000000000003A3130343045303030436E
:102358003534323030303843353432303030384329
:102368003534323030303830303030303030304141
:102378003300000000000000000000000000000022
:102388000000000000000000000000000000000045
:102398000000000000000000000000000000000035
:1023A8000000000000000000000000000000000025
:1023B8000000000000000000000000000000000015
:1023C8000000000000000000000000000000000005
:1023D8000000000000000000000000003A31303426
:1023E80030463030303030303030303030303030CF
:1023F80030303030303030303030303030433534B9
:102408003230303038423100000000000000000057
:1024180000000000000000000000000000000000B4
:1024280000000000000000000000000000000000A4
:102438000000000000000000000000000000000094
:102448000000000000000000000000000000000084
:102458000000000000000000000000000000000074
:102468000000000000000000000000000000000064
:1024780000003A31303431303030303030303030A4
:102488003030304335343230303038433534323000
:10249800303038433534323030303838320000008C
:1024A8000000000000000000000000000000000024
:1024B8000000000000000000000000000000000014
:1024C8000000000000000000000000000000000004
:1024D80000000000000000000000000000000000F4
:1024E80000000000000000000000000000000000E4
:1024F80000000000000000000000000000000000D4
:1025080000000000000000003A3130343131303032
:1025180030303030303030303030303030303030B3
:1025280030303030303030303030303030303030A3
:1025380030394600000000000000000000000000E4
:102548000000000000000000000000000000000083
:102558000000000000000000000000000000000073
:102568000000000000000000000000000000000063
:102578000000000000000000000000000000000053
:102588000000000000000000000000000000000043
:1025980000000000000000000000000000003A31C8
:1025A80030343132303030433534323030303843E3
:1025B80035343230303038433534323030303843C7
:1025C8003534323030303835330000000000000038
:1025D80000000000000000000000000000000000F3
:1025E80000000000000000000000000000000000E3
:1025F80000000000000000000000000000000000D3
:1026080000000000000000000000000000000000C2
:1026180000000000000000000000000000000000B2
:1026280000000000000000000000000000000000A2
:10263800000000003A313034313330303043353423
:102648003230303038303030303030303030303078
:10265800303030303030303030303030303730009B
:102668000000000000000000000000000000000062
:102678000000000000000000000000000000000052
:102688000000000000000000000000000000000042
:102698000000000000000000000000000000000032
:1026A8000000000000000000000000000000000022
:1026B8000000000000000000000000000000000012
:1026C800000000000000000000003A3130343134CE
:1026D80030303030303030303030303030303030F2
:1026E80030303030303030303030304335343230C4
:1026F80030303836300000000000000000000000D4
:1027080000000000000000000000000000000000C1
:1027180000000000000000000000000000000000B1
:1027280000000000000000000000000000000000A1
:102738000000000000000000000000000000000091
:102748000000000000000000000000000000000081
:102758000000000000000000000000000000000071
:102768003A3130343135303030433534323030302E
:102778003843353432303030384335343230303005
:1027880038433534323030303832330000000000FE
:102798000000000000000000000000000000000031
:1027A8000000000000000000000000000000000021
:1027B8000000000000000000000000000000000011
:1027C8000000000000000000000000000000000001
:1027D80000000000000000000000000000000000F1
:1027E80000000000000000000000000000000000E1
:1027F8000000000000003A313034313630303043C8
:102808003534323030303843353432303030383087
:1028180030303030303030303030303030303033AD
:10282800310000000000000000000000000000006F
:102838000000000000000000000000000000000090
:102848000000000000000000000000000000000080
:102858000000000000000000000000000000000070
:102868000000000000000000000000000000000060
:102878000000000000000000000000000000000050
:102888000000000000000000000000003A31303471
:102898003137303030303030303030303030303028
:1028A8003030303030303030303030303030303020
:1028B80030303030303346000000000000000000A7
:1028C8000000000000000000000000000000000000
:1028D80000000000000000000000000000000000F0
:1028E80000000000000000000000000000000000E0
:1028F80000000000000000000000000000000000D0
:1029080000000000000000000000000000000000BF
:1029180000000000000000000000000000000000AF
:1029280000003A31303431383030303030303030E7
:102938003030304335343230303038303030303069
:10294800303030303030303030303032300000000D
:10295800000000000000000000000000000000006F
:10296800000000000000000000000000000000005F
:10297800000000000000000000000000000000004F
:10298800000000000000000000000000000000003F
:10299800000000000000000000000000000000002F
:1029A800000000000000000000000000000000001F
:1029B80000000000000000003A3130343139303076
:1029C80030433534323030303830374235303046A5
:1029D8003042374638323734423237343838333475
:1029E8003230460000000000000000000000000037
:1029F80000000000000000000000000000000000CF
:102A080000000000000000000000000000000000BE
:102A180000000000000000000000000000000000AE
:102A2800000000000000000000000000000000009E
:102A3800000000000000000000000000000000008E
:102A480000000000000000000000000000003A3113
:102A58003034314130303032364433323734423218
:102A680037343930303230384234323244443330FB
:102A78003046303041464135330000000000000048
:102A8800000000000000000000000000000000003E
:102A9800000000000000000000000000000000002E
:102AA800000000000000000000000000000000001E
:102AB800000000000000000000000000000000000E
:102AC80000000000000000000000000000000000FE
:102AD80000000000000000000000000000000000EE
:102AE800000000003A313034314230303032353471
:102AF8004532363443303141393638343630304651
:102B08003039454638413431424134313043390057
:102B180000000000000000000000000000000000AD
:102B2800000000000000000000000000000000009D
:102B3800000000000000000000000000000000008D
:102B4800000000000000000000000000000000007D
:102B5800000000000000000000000000000000006D
:102B6800000000000000000000000000000000005D
:102B7800000000000000000000003A31303431430A
:102B880030303030303235414334323239444332D8
:102B980032344532323443413431424134313030B9
:102BA800303235363100000000000000000000001F
:102BB800000000000000000000000000000000000D
:102BC80000000000000000000000000000000000FD
:102BD80000000000000000000000000000000000ED
:102BE80000000000000000000000000000000000DD
:102BF80000000000000000000000000000000000CD
:102C080000000000000000000000000000000000BC
:102C18003A31303431443030304143343232374441
:102C280043444445393030303130304630463546FB
:102C3800393145344431463443373300000000000D
:102C4800000000000000000000000000000000007C
:102C5800000000000000000000000000000000006C
:102C6800000000000000000000000000000000005C
:102C7800000000000000000000000000000000004C
:102C8800000000000000000000000000000000003C
:102C9800000000000000000000000000000000002C
:102CA8000000000000003A31303431453030303611
:102CB80034314230363436413431303030324332B8
:102CC8003144433330343630304630383046383487
:102CD80039000000000000000000000000000000B3
:102CE80000000000000000000000000000000000DC
:102CF80000000000000000000000000000000000CC
:102D080000000000000000000000000000000000BB
:102D180000000000000000000000000000000000AB
:102D2800000000000000000000000000000000009B
:102D38000000000000000000000000003A313034BC
:102D48003146303030443345393030313230433316
:102D580033353346383034344338393141393434F3
:102D680032434544394637000000000000000000A7
:102D7800000000000000000000000000000000004B
:102D8800000000000000000000000000000000003B
:102D9800000000000000000000000000000000002B
:102DA800000000000000000000000000000000001B
:102DB800000000000000000000000000000000000B
:102DC80000000000000000000000000000000000FB
:102DD80000003A3130343230303030353535383122
:102DE8003536303034333246394537353346383066
:102DF80038324235334638303434433544000000E5
:102E080000000000000000000000000000000000BA
:102E180000000000000000000000000000000000AA
:102E2800000000000000000000000000000000009A
:102E3800000000000000000000000000000000008A
:102E4800000000000000000000000000000000007A
:102E5800000000000000000000000000000000006A
:102E680000000000000000003A31303432313030C8
:102E780030393434324339443931303630303433F0
:102E880032464145373536463832353330393834AD
:102E9800373144000000000000000000000000007E
:102EA800000000000000000000000000000000001A
:102EB800000000000000000000000000000000000A
:102EC80000000000000000000000000000000000FA
:102ED80000000000000000000000000000000000EA
:102EE80000000000000000000000000000000000DA
:102EF80000000000000000000000000000003A315F
:102F0800303432323030303031333543454537355F
:102F18003646383235333039383437303133354442
:102F28003045373031334346370000000000000099
:102F38000000000000000000000000000000000089
:102F48000000000000000000000000000000000079
:102F58000000000000000000000000000000000069
:102F68000000000000000000000000000000000059
:102F78000000000000000000000000000000000049
:102F88000000000000000000000000000000000039
:102F9800000000003A3130343233303030353546B5
:102FA8003832343330393834374436453743383497
:102FB8003230303038453034323030303830350007
:102FC80000000000000000000000000000000000F9
:102FD80000000000000000000000000000000000E9
:102FE80000000000000000000000000000000000D9
:102FF80000000000000000000000000000000000C9
:1030080000000000000000000000000000000000B8
:1030180000000000000000000000000000000000A8
:10302800000000000000000000003A313034323463
:103038003030304530343230303038463034323049
:103048003030384630343230303038463034323030
:103058003030383936000000000000000000000061
:103068000000000000000000000000000000000058
:103078000000000000000000000000000000000048
:103088000000000000000000000000000000000038
:103098000000000000000000000000000000000028
:1030A8000000000000000000000000000000000018
:1030B8000000000000000000000000000000000008
:1030C8003A313034323530303046303432303030C6
:1030D80038463034323030303846303432303030A0
:1030E800384630343230303038373600000000008F
:1030F80000000000000000000000000000000000C8
:1031080000000000000000000000000000000000B7
:1031180000000000000000000000000000000000A7
:103128000000000000000000000000000000000097
:103138000000000000000000000000000000000087
:103148000000000000000000000000000000000077
:103158000000000000003A3130343236303030316F
:1031680034343830303437464545373145463030C9
:103178003430463043424645464633303838303797
:103188003000000000000000000000000000000007
:103198000000000000000000000000000000000027
:1031A8000000000000000000000000000000000017
:1031B8000000000000000000000000000000000007
:1031C80000000000000000000000000000000000F7
:1031D80000000000000000000000000000000000E7
:1031E8000000000000000000000000003A31303408
:1031F800323730303045464633303938303731345D
:103208003631303441313034374645453746454507
:103218003731454630393300000000000000000017
:103228000000000000000000000000000000000096
:103238000000000000000000000000000000000086
:103248000000000000000000000000000000000076
:103258000000000000000000000000000000000066
:103268000000000000000000000000000000000056
:103278000000000000000000000000000000000046
:1032880000003A3130343238303030303430463063
:103298004342464546463330383830454646333053
:1032A8003938303731343630423441364600000040
:1032B8000000000000000000000000000000000006
:1032C80000000000000000000000000000000000F6
:1032D80000000000000000000000000000000000E6
:1032E80000000000000000000000000000000000D6
:1032F80000000000000000000000000000000000C6
:1033080000000000000000000000000000000000B5
:1033180000000000000000003A313034323930300B
:103328003031303437464545373145463030343012
:10333800463043424645464633303838304546469F
:1033480033414100000000000000000000000000C0
:103358000000000000000000000000000000000065
:103368000000000000000000000000000000000055
:103378000000000000000000000000000000000045
:103388000000000000000000000000000000000035
:103398000000000000000000000000000000000025
:1033A80000000000000000000000000000003A31AA
:1033B80030343241303030303938303731343630CB
:1033C800363441313034374645453746454537462A
:1033D80045453746454537393300000000000000B1
:1033E80000000000000000000000000000000000D5
:1033F80000000000000000000000000000000000C5
:1034080000000000000000000000000000000000B4
:1034180000000000000000000000000000000000A4
:103428000000000000000000000000000000000094
:103438000000000000000000000000000000000084
:10344800000000003A313034324230303037303406
:103458003730303030393534313030303837423425
:103468003230303038393334323030303843370046
:103478000000000000000000000000000000000044
:103488000000000000000000000000000000000034
:103498000000000000000000000000000000000024
:1034A8000000000000000000000000000000000014
:1034B8000000000000000000000000000000000004
:1034C80000000000000000000000000000000000F4
:1034D800000000000000000000003A30363432439B
:1034E8003030304139343230303038464545373263
:1034F8003000000000000000000000000000000094
:1035080000000000000000000000000000000000B3
:1035180000000000000000000000000000000000A3
:103528000000000000000000000000000000000093
:103538000000000000000000000000000000000083
:103548000000000000000000000000000000000073
:103558000000000000000000000000000000000063
:103568000000000000000000000000000000000053
:103578003A31303432433830303038343630303005
:10358800383030303030303230303830303030321F
:1035980030303834363030303846320000000000E1
:1035A8000000000000000000000000000000000013
:1035B8000000000000000000000000000000000003
:1035C80000000000000000000000000000000000F3
:1035D80000000000000000000000000000000000E3
:1035E80000000000000000000000000000000000D3
:1035F80000000000000000000000000000000000C3
:103608000000000000003A313034324438303030A5
:1036180030303030303130303030303030313030A0
:10362800383030303032303043303030303230366D
:103638003200000000000000000000000000000050
:103648000000000000000000000000000000000072
:103658000000000000000000000000000000000062
:103668000000000000000000000000000000000052
:103678000000000000000000000000000000000042
:103688000000000000000000000000000000000032
:103698000000000000000000000000003A3038344C
:1036A80032453830303030303030303130303030F2
:1036B800303030313041450000000000000000008B
:1036C80000000000000000000000000000000000F2
:1036D80000000000000000000000000000000000E2
:1036E80000000000000000000000000000000000D2
:1036F80000000000000000000000000000000000C2
:1037080000000000000000000000000000000000B1
:1037180000000000000000000000000000000000A1
:103728000000000000000000000000000000000091
:1037380000003A313034324630303030384235309B
:103748003046303135463830303030303132333031
:1037580033363030313442304236304336000000A0
:103768000000000000000000000000000000000051
:103778000000000000000000000000000000000041
:103788000000000000000000000000000000000031
:103798000000000000000000000000000000000021
:1037A8000000000000000000000000000000000011
:1037B8000000000000000000000000000000000001
:1037C80000000000000000003A313034333030305F
:1037D80030373034373030424630303030303032A5
:1037E8003030384235303046303142463830323465
:1037F800423041000000000000000000000000000E
:1038080000000000000000000000000000000000B0
:1038180000000000000000000000000000000000A0
:103828000000000000000000000000000000000090
:103838000000000000000000000000000000000080
:103848000000000000000000000000000000000070
:1038580000000000000000000000000000003A31F5
:103868003034333130303030323441394136303011
:1038780038424430304246303045443030453030AC
:10388800303430303030384245000000000000004D
:103898000000000000000000000000000000000020
:1038A8000000000000000000000000000000000010
:1038B8000000000000000000000000000000000000
:1038C80000000000000000000000000000000000F0
:1038D80000000000000000000000000000000000E0
:1038E80000000000000000000000000000000000D0
:1038F800000000003A31303433323030304246462E
:10390800333446384630353439303634424341361C
:103918003830324634453036323133343339450065
:10392800000000000000000000000000000000008F
:10393800000000000000000000000000000000007F
:10394800000000000000000000000000000000006F
:10395800000000000000000000000000000000005F
:10396800000000000000000000000000000000004F
:10397800000000000000000000000000000000003F
:10398800000000000000000000003A3130343333FA
:10399800303030434236304246463334463846307B
:1039A8003042464644453730304246303045443050
:1039B80030453039330000000000000000000000EE
:1039C80000000000000000000000000000000000EF
:1039D80000000000000000000000000000000000DF
:1039E80000000000000000000000000000000000CF
:1039F80000000000000000000000000000000000BF
:103A080000000000000000000000000000000000AE
:103A1800000000000000000000000000000000009E
:103A28003A3130343334303030303430304641304D
:103A38003530433442314136383030323134324611
:103A4800303031303231413630433100000000002F
:103A5800000000000000000000000000000000005E
:103A6800000000000000000000000000000000004E
:103A7800000000000000000000000000000000003E
:103A8800000000000000000000000000000000002E
:103A9800000000000000000000000000000000001E
:103AA800000000000000000000000000000000000E
:103AB8000000000000003A313034333530303039FE
:103AC800393630314136383232463038343732328E
:103AD800324634383033323141363030373441347D
:103AE8003700000000000000000000000000000097
:103AF80000000000000000000000000000000000BE
:103B080000000000000000000000000000000000AD
:103B1800000000000000000000000000000000009D
:103B2800000000000000000000000000000000008D
:103B3800000000000000000000000000000000007D
:103B48000000000000000000000000003A3130349E
:103B580033363030303541363031413638323246FE
:103B680034383032323141363044393630303434FA
:103B780042344646303138000000000000000000A2
:103B8800000000000000000000000000000000002D
:103B9800000000000000000000000000000000001D
:103BA800000000000000000000000000000000000D
:103BB80000000000000000000000000000000000FD
:103BC80000000000000000000000000000000000ED
:103BD80000000000000000000000000000000000DD
:103BE80000003A3130343337303030303036323903
:103BF8004136303730343730304246303033383061
:103C08003234303130333030303234384400000010
:103C1800000000000000000000000000000000009C
:103C2800000000000000000000000000000000008C
:103C3800000000000000000000000000000000007C
:103C4800000000000000000000000000000000006C
:103C5800000000000000000000000000000000005C
:103C6800000000000000000000000000000000004C
:103C780000000000000000003A31303433383030A2
:103C880030303045443030453031393442314136B6
:103C980038323246343030323231413630394136BA
:103CA800384336000000000000000000000000005B
:103CB80000000000000000000000000000000000FC
:103CC80000000000000000000000000000000000EC
:103CD80000000000000000000000000000000000DC
:103CE80000000000000000000000000000000000CC
:103CF80000000000000000000000000000000000BC
:103D080000000000000000000000000000003A3140
:103D18003034333930303032324630303230323964
:103D28004136303941363834324630303130323924
:103D38004136303941363844410000000000000067
:103D4800000000000000000000000000000000006B
:103D5800000000000000000000000000000000005B
:103D6800000000000000000000000000000000004B
:103D7800000000000000000000000000000000003B
:103D8800000000000000000000000000000000002B
:103D9800000000000000000000000000000000001B
:103DA800000000003A31303433413030303232468E
:103DB800304630303239413630394136383941367B
:103DC800303941363832324634453035324339009D
:103DD80000000000000000000000000000000000DB
:103DE80000000000000000000000000000000000CB
:103DF80000000000000000000000000000000000BB
:103E080000000000000000000000000000000000AA
:103E1800000000000000000000000000000000009A
:103E2800000000000000000000000000000000008A
:103E3800000000000000000000003A313034334236
:103E480030303039413630394136383941363039F9
:103E580041363832324634363034323941363039E8
:103E68004136383531000000000000000000000035
:103E7800000000000000000000000000000000003A
:103E8800000000000000000000000000000000002A
:103E9800000000000000000000000000000000001A
:103EA800000000000000000000000000000000000A
:103EB80000000000000000000000000000000000FA
:103EC80000000000000000000000000000000000EA
:103ED8003A3130343343303030394136303141367D
:103EE8003834324634383032323141363031413666
:103EF800383432463438303332423500000000005E
:103F080000000000000000000000000000000000A9
:103F18000000000000000000000000000000000099
:103F28000000000000000000000000000000000089
:103F38000000000000000000000000000000000079
:103F48000000000000000000000000000000000069
:103F58000000000000000000000000000000000059
:103F68000000000000003A31303433443030303142
:103F780041363031413638393230334643443531B1
:103F880041363832324630303130323141363036CF
:103F980041000000000000000000000000000000D8
:103FA8000000000000000000000000000000000009
:103FB80000000000000000000000000000000000F9
:103FC80000000000000000000000000000000000E9
:103FD80000000000000000000000000000000000D9
:103FE80000000000000000000000000000000000C9
:103FF8000000000000000000000000003A313034EA
:104008003345303030314136383232463038303747
:104018003231413630373034373030424630303341
:104028003830323430444400000000000000000002
:104038000000000000000000000000000000000078
:104048000000000000000000000000000000000068
:104058000000000000000000000000000000000058
:104068000000000000000000000000000000000048
:104078000000000000000000000000000000000038
:104088000000000000000000000000000000000028
:1040980000003A3130343346303030303133383044
:1040A8003732383434443844464538303046303076
:1040B8003430433134314332343243463200000025
:1040C80000000000000000000000000000000000E8
:1040D80000000000000000000000000000000000D8
:1040E80000000000000000000000000000000000C8
:1040F80000000000000000000000000000000000B8
:1041080000000000000000000000000000000000A7
:104118000000000000000000000000000000000097
:1041280000000000000000003A31303434303030F4
:104138003033343343323034413031323331303636
:104148004230334641303146313031343331313603
:1041580033384300000000000000000000000000A9
:104168000000000000000000000000000000000047
:104178000000000000000000000000000000000037
:104188000000000000000000000000000000000027
:104198000000000000000000000000000000000017
:1041A8000000000000000000000000000000000007
:1041B80000000000000000000000000000003A318C
:1041C80030343431303030373034373143344130A3
:1041D8003132333530364230334641303146313072
:1041E80031343335313633423900000000000000E5
:1041F80000000000000000000000000000000000B7
:1042080000000000000000000000000000000000A6
:104218000000000000000000000000000000000096
:104228000000000000000000000000000000000086
:104238000000000000000000000000000000000076
:104248000000000000000000000000000000000066
:10425800000000003A3130343432303030373034F6
:1042680037313834413031323331303643303346E8
:104278004130314631303134333131363432420015
:104288000000000000000000000000000000000026
:104298000000000000000000000000000000000016
:1042A8000000000000000000000000000000000006
:1042B80000000000000000000000000000000000F6
:1042C80000000000000000000000000000000000E6
:1042D80000000000000000000000000000000000D6
:1042E800000000000000000000003A313034343390
:1042F800303030373034373134344130313233357F
:10430800303643303346413031463130313433353D
:10431800313634394600000000000000000000007B
:104328000000000000000000000000000000000085
:104338000000000000000000000000000000000075
:104348000000000000000000000000000000000065
:104358000000000000000000000000000000000055
:104368000000000000000000000000000000000045
:104378000000000000000000000000000000000035
:104388003A313034343430303037303437313034F7
:1043980041303132333130364430334641303146A2
:1043A80031303134333131363531310000000000DD
:1043B80000000000000000000000000000000000F5
:1043C80000000000000000000000000000000000E5
:1043D80000000000000000000000000000000000D5
:1043E80000000000000000000000000000000000C5
:1043F80000000000000000000000000000000000B5
:1044080000000000000000000000000000000000A4
:104418000000000000003A31303434353030303795
:10442800303437304334413031323335303644302C
:104438003346413031463130313433353136353811
:10444800350000000000000000000000000000002F
:104458000000000000000000000000000000000054
:104468000000000000000000000000000000000044
:104478000000000000000000000000000000000034
:104488000000000000000000000000000000000024
:104498000000000000000000000000000000000014
:1044A8000000000000000000000000003A31303435
:1044B80034363030303730343730383441303132B8
:1044C800333130364530334641303146313031347E
:1044D8003331313636463700000000000000000056
:1044E80000000000000000000000000000000000C4
:1044F80000000000000000000000000000000000B4
:1045080000000000000000000000000000000000A3
:104518000000000000000000000000000000000093
:104528000000000000000000000000000000000083
:104538000000000000000000000000000000000073
:1045480000003A3130343437303030373034373097
:1045580034344130313233353036453033464130EA
:104568003146313031343335313636364200000089
:104578000000000000000000000000000000000033
:104588000000000000000000000000000000000023
:104598000000000000000000000000000000000013
:1045A8000000000000000000000000000000000003
:1045B80000000000000000000000000000000000F3
:1045C80000000000000000000000000000000000E3
:1045D80000000000000000003A3130343438303038
:1045E8003037303437303042463030333830323478
:1045F8003030463239313042353036443830333253
:1046080041333400000000000000000000000000FA
:104618000000000000000000000000000000000092
:104628000000000000000000000000000000000082
:104638000000000000000000000000000000000072
:104648000000000000000000000000000000000062
:104658000000000000000000000000000000000052
:1046680000000000000000000000000000003A31D7
:1046780030343439303030303444383031323831F5
:1046880031443030324433303232383130443031D2
:104698003042443039344233360000000000000014
:1046A8000000000000000000000000000000000002
:1046B80000000000000000000000000000000000F2
:1046C80000000000000000000000000000000000E2
:1046D80000000000000000000000000000000000D2
:1046E80000000000000000000000000000000000C2
:1046F80000000000000000000000000000000000B2
:10470800000000003A31303434413030303138362E
:10471800383439303030333234384334303230453D
:104728004130343030313836303138363834410061
:104738000000000000000000000000000000000071
:104748000000000000000000000000000000000061
:104758000000000000000000000000000000000051
:104768000000000000000000000000000000000041
:104778000000000000000000000000000000000031
:104788000000000000000000000000000000000021
:10479800000000000000000000003A3130343442CC
:1047A80030303030324641303146313031343331B7
:1047B8003936304630453730333442463045373065
:1047C80033344230370000000000000000000000D1
:1047D80000000000000000000000000000000000D1
:1047E80000000000000000000000000000000000C1
:1047F80000000000000000000000000000000000B1
:1048080000000000000000000000000000000000A0
:104818000000000000000000000000000000000090
:104828000000000000000000000000000000000080
:104838003A313034344330303045454537303042F2
:10484800463030303030323430303030343032343A
:104858003030303038303234303836000000000024
:104868000000000000000000000000000000000040
:104878000000000000000000000000000000000030
:104888000000000000000000000000000000000020
:104898000000000000000000000000000000000010
:1048A8000000000000000000000000000000000000
:1048B80000000000000000000000000000000000F0
:1048C8000000000000003A313034344430303030D9
:1048D8003132413135443130313238304144303071
:1048E800324433303232383045443037303437335D
:1048F800340000000000000000000000000000007C
:10490800000000000000000000000000000000009F
:10491800000000000000000000000000000000008F
:10492800000000000000000000000000000000007F
:10493800000000000000000000000000000000006F
:10494800000000000000000000000000000000005F
:104958000000000000000000000000003A31303480
:1049680034453030303132344235383638384134D5
:1049780030323045413032303235413630373034DC
:10498800373130344130430000000000000000009F
:10499800000000000000000000000000000000000F
:1049A80000000000000000000000000000000000FF
:1049B80000000000000000000000000000000000EF
:1049C80000000000000000000000000000000000DF
:1049D80000000000000000000000000000000000CF
:1049E80000000000000000000000000000000000BF
:1049F80000003A31303434463030303533363838C8
:104A08003834303233454130303030353036303755
:104A180030343730443442463045373936000000A8
:104A2800000000000000000000000000000000007E
:104A3800000000000000000000000000000000006E
:104A4800000000000000000000000000000000005E
:104A5800000000000000000000000000000000004E
:104A6800000000000000000000000000000000003E
:104A7800000000000000000000000000000000002E
:104A880000000000000000003A313034353030308A
:104A980030303032414633443130313238303944A5
:104AA80030303244333032323830434430373034A7
:104AB800373239000000000000000000000000004C
:104AC80000000000000000000000000000000000DE
:104AD80000000000000000000000000000000000CE
:104AE80000000000000000000000000000000000BE
:104AF80000000000000000000000000000000000AE
:104B0800000000000000000000000000000000009D
:104B180000000000000000000000000000003A3122
:104B2800303435313030303036344235383638303C
:104B3800313232384134303032343345364537300B
:104B48003434423541363837410000000000000057
:104B5800000000000000000000000000000000004D
:104B6800000000000000000000000000000000003D
:104B7800000000000000000000000000000000002D
:104B8800000000000000000000000000000000001D
:104B9800000000000000000000000000000000000D
:104BA80000000000000000000000000000000000FD
:104BB800000000003A313034353230303038383483
:104BC80030313034333538363037303437303234AA
:104BD800424632453730303030303234303939009F
:104BE80000000000000000000000000000000000BD
:104BF80000000000000000000000000000000000AD
:104C0800000000000000000000000000000000009C
:104C1800000000000000000000000000000000008C
:104C2800000000000000000000000000000000007C
:104C3800000000000000000000000000000000006C
:104C4800000000000000000000003A313034353325
:104C5800303030303030343032343030303038303A
:104C680032343030463239313042353036443830DB
:104C7800333241453300000000000000000000000E
:104C8800000000000000000000000000000000001C
:104C9800000000000000000000000000000000000C
:104CA80000000000000000000000000000000000FC
:104CB80000000000000000000000000000000000EC
:104CC80000000000000000000000000000000000DC
:104CD80000000000000000000000000000000000CC
:104CE8003A31303435343030303034443830313281
:104CF8003831314430303244333032323831304454
:104D08003031304244303934423835000000000038
:104D1800000000000000000000000000000000008B
:104D2800000000000000000000000000000000007B
:104D3800000000000000000000000000000000006B
:104D4800000000000000000000000000000000005B
:104D5800000000000000000000000000000000004B
:104D6800000000000000000000000000000000003B
:104D78000000000000003A31303435353030303929
:104D880038363834393030303332343843343032CE
:104D980030454130343030393836303938363831AA
:104DA80039000000000000000000000000000000C2
:104DB80000000000000000000000000000000000EB
:104DC80000000000000000000000000000000000DB
:104DD80000000000000000000000000000000000CB
:104DE80000000000000000000000000000000000BB
:104DF80000000000000000000000000000000000AB
:104E08000000000000000000000000003A313034CB
:104E18003536303030303246413031463130313439
:104E280033393936304630453730333442463045E9
:104E380037303334424436000000000000000000E0
:104E4800000000000000000000000000000000005A
:104E5800000000000000000000000000000000004A
:104E6800000000000000000000000000000000003A
:104E7800000000000000000000000000000000002A
:104E8800000000000000000000000000000000001A
:104E9800000000000000000000000000000000000A
:104EA80000003A31303435373030304545453730F9
:104EB80030424630303030303234303030303430B8
:104EC800323430303030383032343044350000003D
:104ED80000000000000000000000000000000000CA
:104EE80000000000000000000000000000000000BA
:104EF80000000000000000000000000000000000AA
:104F08000000000000000000000000000000000099
:104F18000000000000000000000000000000000089
:104F28000000000000000000000000000000000079
:104F380000000000000000003A31303435383030CD
:104F480030303132383130423530414430303244FB
:104F580033303232383132443031304244304134E7
:104F68004236300000000000000000000000000091
:104F78000000000000000000000000000000000029
:104F88000000000000000000000000000000000019
:104F98000000000000000000000000000000000009
:104FA80000000000000000000000000000000000F9
:104FB80000000000000000000000000000000000E9
:104FC80000000000000000000000000000003A316E
:104FD800303435393030303538363930313234388C
:104FE800433430323045413034303030344530305D
:104FF80037344235433639363000000000000000AF
:105008000000000000000000000000000000000098
:105018000000000000000000000000000000000088
:105028000000000000000000000000000000000078
:105038000000000000000000000000000000000068
:105048000000000000000000000000000000000058
:105058000000000000000000000000000000000048
:10506800000000003A3130343541303030383834BF
:1050780030323445413030303035383631353836D5
:1050880039384134303032343335413631463100E5
:105098000000000000000000000000000000000008
:1050A80000000000000000000000000000000000F8
:1050B80000000000000000000000000000000000E8
:1050C80000000000000000000000000000000000D8
:1050D80000000000000000000000000000000000C8
:1050E80000000000000000000000000000000000B8
:1050F800000000000000000000003A313034354262
:1051080030303045434537303334424543453730F6
:105118003042463030303030323430303030343055
:10512800323430433000000000000000000000006E
:105138000000000000000000000000000000000067
:105148000000000000000000000000000000000057
:105158000000000000000000000000000000000047
:105168000000000000000000000000000000000037
:105178000000000000000000000000000000000027
:105188000000000000000000000000000000000017
:105198003A313034354330303030303038303234D2
:1051A8003037303437303842354646463744434640
:1051B80045303032313031323031420000000000A9
:1051C80000000000000000000000000000000000D7
:1051D80000000000000000000000000000000000C7
:1051E80000000000000000000000000000000000B7
:1051F80000000000000000000000000000000000A7
:105208000000000000000000000000000000000096
:105218000000000000000000000000000000000086
:105228000000000000003A31303435443030304658
:1052380046463730454646303132323131343630E1
:1052480030323046464637353546463031323244BC
:105258003100000000000000000000000000000015
:105268000000000000000000000000000000000036
:105278000000000000000000000000000000000026
:105288000000000000000000000000000000000016
:105298000000000000000000000000000000000006
:1052A80000000000000000000000000000000000F6
:1052B8000000000000000000000000003A31303417
:1052C800354530303031313436303032304646466C
:1052D800373734464630303232303132313130347B
:1052E8003646464637354200000000000000000000
:1052F80000000000000000000000000000000000A6
:105308000000000000000000000000000000000095
:105318000000000000000000000000000000000085
:105328000000000000000000000000000000000075
:105338000000000000000000000000000000000065
:105348000000000000000000000000000000000055
:1053580000003A313034354630303041334646303B
:1053680031323231313436303032304646463743C6
:105378003246463030323230313231383400000073
:105388000000000000000000000000000000000015
:105398000000000000000000000000000000000005
:1053A80000000000000000000000000000000000F5
:1053B80000000000000000000000000000000000E5
:1053C80000000000000000000000000000000000D5
:1053D80000000000000000000000000000000000C5
:1053E80000000000000000003A3038343630303019
:1053F80030313034364646463742444646463445D0
:1054080037434600000000000000000000000000D4
:105418000000000000000000000000000000000084
:105428000000000000000000000000000000000074
:105438000000000000000000000000000000000064
:105448000000000000000000000000000000000054
:105458000000000000000000000000000000000044
:105468000000000000000000000000000000000034
:1054780000000000000000000000000000003A30BA
:1054880038343630383030303830303030323030F0
:10549800303030303030303832000000000000004A
:1054A80000000000000000000000000000000000F4
:1054B80000000000000000000000000000000000E4
:1054C80000000000000000000000000000000000D4
:1054D80000000000000000000000000000000000C4
:1054E80000000000000000000000000000000000B4
:1054F80000000000000000000000000000000000A4
:105508000000000000000000000000000000000093
:10551800000000003A303430303030303530383028
:105528003034313935313900000000000000000006
:105538000000000000000000000000000000000063
:105548000000000000000000000000000000000053
:105558000000000000000000000000000000000043
:105568000000000000000000000000000000000033
:105578000000000000000000000000000000000023
:105588000000000000000000000000000000000013
:105598000000000000000000000000000000000003
:1055A800000000000000000000003A3030303030C9
:1055B80030303146460000000000000000000000C6
:1055C80000000000000000000000000000000000D3
:1055D80000000000000000000000000000000000C3
:1055E80000000000000000000000000000000000B3
:1055F80000000000000000000000000000000000A3
:105608000000000000000000000000000000000092
:105618000000000000000000000000000000000082
:105628000000000000000000000000000000000072
:105638000000000000000000000000000000000062
:10564800D43B002000000000000000000000000023
:105658000000000000000000000000000000000042
:105668000000000000000000000000000000000032
:105678000000000000000000000000000000000022
:105688000000000000000000000000000000000012
:105698000000000000000000000000000000000002
:0856A800000000003254769866
:040000050800019559
:00000001FF
