:020000040800F2
:1000000000000120C5020008CB020008CF02000852
:1000100041030008450300088D03000800000000AC
:10002000000000000000000000000000D5030008F0
:10003000D903000800000000DD030008E103000808
:10004000F1030008F1030008F1030008F1030008C0
:10005000F1030008F1030008D50C0008F1030008C3
:10006000F1030008F1030008F1030008F1030008A0
:10007000F1030008F1030008F1030008F103000890
:10008000F1030008F1030008F1030008000000007C
:10009000000000000000000000000000F103000864
:1000A000F1030008F1030008F1030008F103000860
:1000B000F1030008F1030008F1030008F103000850
:1000C000F1030008F1030008F1030008F103000840
:1000D000F10300087D0600089906000800000000F2
:1000E000F1030008F1030008F1030008000000001C
:1000F000000000000000000000000000F103000804
:1001000000000000F1030008F1030008F1030008FB
:1001100000000000000000000000000000000000DF
:10012000F90C0008F1030008F1030008F1030008CE
:10013000F1030008000000000000000000000000C3
:10014000000000000000000000000000F1030008B3
:10015000F1030008F1030008F1030008B5060008E8
:10016000F1030008F1030008000000000000000097
:10017000000000000000000000000000000000007F
:1001800000000000F1030008000000000000000073
:10019000F103000800B583B000F0BAF9384B394AD2
:1001A0001360394A1360394900E02146384B9942BF
:1001B0000BD20A684B6801F10C0488689842F4D9A4
:1001C0001168196004330432F8E72E4B1A68314B7A
:1001D0009A4200D0FEE72C4B1A682F4B9A42F9D175
:1001E000274B2E4A13602E4A13602E4B05E0002049
:1001F000106004329342FAD80B462B4A934204D241
:10020000194651F8082B5B68F4E7244B1B6813B9B7
:10021000234B1B6803B1FEE700F0F0FD694601A81F
:1002200000F022F9214C224BE41AA4100025AC4224
:1002300014DC204C204BE41AA4100025AC4213DC43
:100240000099019800F0F6FD05461C4C1C4BE41A81
:10025000A410002C0EDC284600F0E2F8144B53F8F2
:10026000253098470135E2E7134B53F8253098477E
:100270000135E3E7013C124B53F824309847E8E797
:10028000BABADECA0000002074000020F40300089F
:100290000C04000878563412325476987800002006
:1002A0004C0100200C0400081C0400081C04000879
:1002B0001C0400081C0400081C0400081C0400089E
:1002C0001C04000808B5FFF765FF00BEFEE71EF03E
:1002D000040F0CBFEFF30880EFF309807146414A29
:1002E00010472DE9F04182B004468846124B5E6B00
:1002F0009F6B9D6A1B6B13F0020F03D00E4BDB6AE2
:10030000002B0CDB0D4800F0B7F8CDF800803B4621
:1003100032462946204600F007F900BEFEE74BF6BC
:10032000AB6100F07BF90028ECD0034B4FF00042AA
:10033000DA6202B0BDE8F08100ED00E0541C000874
:1003400000BEFEE71EF0040F0CBFEFF30880EFF3D2
:1003500009807146244A10472DE9F04182B00446D5
:100360008846084B5E6B9F6B9D6A074800F084F8D7
:10037000CDF800803B4632462946204600F0D4F8AE
:1003800000BEFEE700ED00E0641C00081EF0040F54
:100390000CBFEFF30880EFF309807146134A104752
:1003A0002DE9F04182B004468846084B5E6B9F6B96
:1003B0009D6A074800F060F8CDF800803B46324661
:1003C0002946204600F0B0F800BEFEE700ED00E050
:1003D000701C000800BEFEE700BEFEE700BEFEE7A0
:1003E00070470000E302000859030008A103000859
:0403F00000BEFEE766
:1003F400C81C00080000002078000020C81C000869
:1004040000000010000000107800002050010020BF
:080414000000001000000010C0
:10042000FEE7000008B503460C4A12685AB10B4AB1
:100430001068033323F003030344094A934206D8A8
:10044000064A136008BD054A06491160EFE700F04F
:10045000FBFE0C2303604FF0FF30F3E77C0000202D
:1004600000FC00205001002001230360014B0B60C1
:10047000704700BF040000200FB400B583B004AB88
:1004800053F8042B01938021064800F00FFF002849
:1004900003DD0146034800F037F803B05DF804EBD4
:1004A00004B07047840000202DE9F04385B0044675
:1004B0000F4643560BB10E461EE004252846214642
:1004C000ABBE0446384605B0BDE8F08314F9011B05
:1004D00004AA1A4402F8101C0133AB42F6D304AA52
:1004E0001344002203F8102C4FF00408E94640465C
:1004F0004946ABBE8046761B002EE3D03546102E13
:1005000028BF10250023E8E708B5FFF7CDFF08BD99
:1005100008B500F093F8024A024B9A6008BD00BF8C
:100520000000000800ED00E0F8B504460D4617464F
:100530001E462748FFF7A0FF21682648FFF79CFFCB
:1005400061682548FFF798FFA1682448FFF794FFEA
:10055000E1682348FFF790FF21692248FFF78CFFED
:1005600061692148FFF788FFA1692048FFF784FFF0
:10057000E1691F48FFF780FF1E48FFF77DFF29460E
:100580001D48FFF779FF1D4CE16A1D48FFF774FF16
:10059000216B1C48FFF770FFE16B1B48FFF76CFFF6
:1005A00015F0800F0AD115F4004F0CD11748FFF752
:1005B00063FF06991648FFF75FFFF8BD39461548F7
:1005C000FFF75AFFEFE731461348FFF755FFEDE716
:1005D000381B0008481B0008581B0008681B00084F
:1005E000781B0008881B0008981B0008A81B00083F
:1005F000B81B0008C81B0008D41B000800ED00E071
:10060000E41B0008F41B0008041C0008341C00084C
:100610003C1C0008141C0008241C000883691A886C
:100620008A4201D0002070470268033A012A03D8A9
:100630000233836101207047002070470C4B1A6819
:1006400042F001021A60002199601A6822F0847257
:1006500022F480321A60074A5A601A6822F4802213
:100660001A60D960044B4FF000629A60704700BF77
:10067000003802401030002400ED00E008B5044BC3
:1006800000221A60034B1B6803B1984708BD00BFE6
:10069000001001400401002008B5044B00221A603C
:1006A000034B1B6803B1984708BD00BF00440040DE
:1006B0000801002008B5044B00221A60034B1B6898
:1006C00003B1984708BD00BF001401400C01002091
:1006D00070B505460C460023CB60437ABBB1012BB5
:1006E00032D06A7A2B791B0343EAC233AA7943EAF0
:1006F0008223EA7943EA4223E3602A7A012A47D037
:10070000002A41D0022A47D00023236070BD03682D
:100710009A009B0F22A1D1E9000100F015FC224EA6
:10072000A6FB00325109642202FB1102130132338D
:10073000A6FB03235B0903F0F00202EB011203F0B6
:100740000F031344A360CCE702680021921841EB29
:10075000010313A1D1E9000100F0F6FB124EA6FB44
:1007600000325109642202FB1102D3003233A6FB8E
:1007700003235B095A0002F4F87202EB011203F042
:1007800007031344A360ACE743F00803E360BBE74F
:1007900043F00403E360B7E743F00C03E360B3E71F
:1007A00040BE4025000000001F85EB51C36843F4A4
:1007B0000053C36070474160036813F0400FFBD0E3
:1007C00023F0400303607047036813F0200FFBD051
:1007D00043680B7001207047044B1A6822F0040232
:1007E0001A601A6842F002021A60704710E000E0D6
:1007F000024A136843F001031360704710E000E001
:10080000034B00229A601A6822F001021A607047B6
:1008100010E000E008B5064B1960064B01221A7083
:10082000054B00229A605860FFF7E2FF08BD00BF49
:10083000100100200C00002010E000E01A4B1A68A4
:1008400022F400221A609A6822F002029A609A68E2
:1008500042F001029A609A6822F0F0029A609A6867
:100860009A609A6822F4E0529A609A689A609A684C
:1008700022F460429A609A689A601A6842F4802270
:100880001A601A6842F480321A60074B1B6813F42E
:10089000003FFAD0044B1A6822F001021A601A686D
:1008A00022F080721A607047003802400138072831
:1008B00044D8DFE800F0040C141C242C343C2048FD
:1008C000036B012202FA01F11943016370471C48CE
:1008D000436B012202FA01F1194341637047184842
:1008E000036C012202FA01F11943016470471448B4
:1008F000436C012202FA01F1194341647047104828
:10090000036D012202FA01F11943016570470C4899
:10091000436D012202FA01F119434165704708480D
:10092000036E012202FA01F119430166704704487F
:10093000436E012202FA01F119434166704700BF7C
:10094000003802400F2933D8032A31D810B40128C7
:1009500012D018B102281DD010BC7047154B186872
:10096000490003248C4020EA04001860186802FA49
:1009700001F101431960EFE70F4B186849000324A8
:100980008C4020EA04001860186802FA01F1014363
:100990001960E1E7094B1868490003248C4020EAFC
:1009A00004001860186802FA01F101431960D3E7E6
:1009B000704700BF000002400004024000080240EF
:1009C000012A07D0002A3DD101282CD018B30228D3
:1009D00031D0704701280CD010B1022812D07047D6
:1009E00019484368012202FA01F123EA010141603A
:1009F000704716484368012202FA01F123EA010117
:100A00004160704712484368012202FA01F123EA6B
:100A10000101416070470C484368012202FA01F16C
:100A200019434160704709484368012202FA01F105
:100A300019434160704706484368012202FA01F1F8
:100A400019434160704700BF0000024000040240AB
:100A5000000802400F2933D8032A31D810B40128E6
:100A600012D018B102281DD010BC7047154B9868E1
:100A7000490003248C4020EA04009860986802FA38
:100A800001F101439960EFE70F4B98684900032497
:100A90008C4020EA04009860986802FA01F1014352
:100AA0009960E1E7094B9868490003248C4020EAEB
:100AB00004009860986802FA01F101439960D3E755
:100AC000704700BF000002400004024000080240DE
:100AD00030B4012828D018B1022849D030BC704762
:100AE000072913D9A1F10803DBB2072BF6D8324B43
:100AF000186A0839890007248C4020EA040018622B
:100B0000186A02FA01F101431962E7E72A4B186AF1
:100B10008D000721A94020EA01011962186A02FA32
:100B200005F101431962D9E7072913D9A1F1080397
:100B3000DBB2072BD2D8214B186A08398900072469
:100B40008C4020EA04001862186A02FA01F101439D
:100B50001962C3E7194B186A8C000721A14020EAEB
:100B600001011962186A02FA04F101431962B5E73A
:100B7000072913D9A1F10803DBB2072BAED8104B1C
:100B8000186A0839890007248C4020EA040018629A
:100B9000186A02FA01F1014319629FE7084B1C6AC7
:100BA00088000721814024EA010119621C6A02FAC7
:100BB00000F12143196291E7000002400004024065
:100BC00000080240174BDB6813F4803FFAD1154B45
:100BD0001B69002B1FDB134B1A6902F078021A61A4
:100BE0001A6942EAC00018611A6942F002021A61E9
:100BF0001A6942F480321A610A4BDB6813F4803FB1
:100C0000FAD1084BDA6842F00102DA601A6922F080
:100C100002021A617047034B034A5A6002F188329C
:100C20005A60D8E7003C02402301674510B5012413
:100C300004E02046FFF7C6FF0134E4B2062CF8D9E1
:100C400010BD000030B41C4BDB6813F4803FFAD1B8
:100C5000194B1B69002B0EDB174B1C6904F4407405
:100C60001C611C6944F480741C611C6944F001041B
:100C70001C61002416E0104B104C5C6004F18834B9
:100C80005C60E9E731F8143020F8023B0A4BDB687E
:100C900013F4803FFAD1084DEB6843F00103EB6099
:100CA0000134A4B29442EDD3034AD36843F0010364
:100CB000D36030BC704700BF003C02402301674551
:100CC00003494B69012202FA00F003434B6170476C
:100CD000003C014008B50020FFF7F2FF024B1B6803
:100CE00003B1984708BD00BF14010020836843F09A
:100CF000200383607047000008B50448FFF7F6FF43
:100D0000034B1B6803B1984708BD00BF0064024055
:100D1000180100200246A0F13003D8B2092809D9F1
:100D2000A2F14103DBB2052B03D8A2F13700C0B218
:100D300070470020704700002DE9F0479AB0054643
:100D40004078FFF7E7FF0746A878FFF7E3FF40EAA0
:100D50000717FFB2E878FFF7DDFF81462879FFF734
:100D6000D9FF06466879FFF7D5FF8046A879FFF7D7
:100D7000D1FF360246EA093636B246EA081636B2DE
:100D80000643B6B21C4B187846EA0046002429E018
:100D90004FEA840A0AF10903E85CFFF7BBFF8146CA
:100DA0000AF10A03E85CFFF7B5FF80460AF10B0A77
:100DB00015F80A00FFF7AEFF8246E31C15F8230082
:100DC000FFF7A8FF000240EA0A3000B240EA09102B
:100DD00000B240EA08001AAB03EB440323F8640CAA
:100DE0000134E4B27A08A242D2D801A93046FFF712
:100DF00029FF1AB0BDE8F0873801002070470000D5
:100E000008B5FFF7FDFC064B00221A70054B064A99
:100E10001A60064B1B68064A1360984708BD00BF5E
:100E20000C00002008ED00E000400008044000082D
:100E30004801002070B59CB0FFF700FD00210120A3
:100E4000FFF734FD11210320FFF730FD0F210520AE
:100E5000FFF72CFD022211460020FFF773FD01224F
:100E600002210020FFF7ACFD002202211046FFF70F
:100E7000F1FD072202210020FFF72AFE02220321B2
:100E80000020FFF75FFD012203210020FFF798FDFE
:100E9000002203211046FFF7DDFD07220321002079
:100EA000FFF716FE234A19AB07CA83E80700224C56
:100EB00021461846FFF70CFC2046FFF777FCFFF7AA
:100EC0008BFC1E491E48FFF7A5FC012600241D4B84
:100ED0001B786BB325460DEB04011748FFF774FC34
:100EE0000028F4D0FFF78CFC1CAB1D4415F8705C97
:100EF000DDB9B6B96846FFF71FFF4B210E48FFF773
:100F00005AFC2C469DF80730302BE0D19DF8083074
:100F1000312BDCD19DF80B30002BD8D1FFF770FFBF
:100F2000D5E7FFF783FE2E46E4E70134E4B2E9E7B4
:100F30001CB070BD801C000800440040010E000879
:100F4000C0E1E4000C00002053B94AB9002908BFF1
:100F500000281CBF4FF0FF314FF0FF3000F072B996
:100F6000ADF1080C6DE904CE00F006F8DDF804E000
:100F7000DDE9022304B070472DE9F047089E0446DE
:100F80008846002B4BD18A42154667D9B2FA82F2C5
:100F90004AB1C2F1200701FA02F320FA07F795409F
:100FA00047EA030894404FEA154E230CB8FBFEF7BE
:100FB0001FFA85FC0EFB178843EA084307FB0CF178
:100FC000994209D9EB1807F1FF3080F01B81994253
:100FD00040F21881023F2B445B1AA4B2B3FBFEF02F
:100FE0000EFB103344EA034400FB0CFCA44509D972
:100FF0002C1900F1FF3380F00781A44540F20481F1
:1010000002382C4440EA0740A4EB0C0400271EB130
:10101000D4400023C6E900433946BDE8F0878B423F
:1010200009D9002E00F0EB800027C6E90001384600
:101030003946BDE8F087B3FA83F7002F47D18B42DA
:1010400002D3824200F2FA80841A61EB030301208A
:101050009846002EE0D0C6E90048DDE702B9FFDE81
:10106000B2FA82F2002A40F08F80491B4FEA154EF7
:101070001FFA85F80127B1FBFEFC230C0EFB1C11A7
:1010800043EA014308FB0CF1994207D9EB180CF134
:10109000FF3002D2994200F2CD808446591AA3B2A1
:1010A000B1FBFEF00EFB101443EA044408FB00F809
:1010B000A04507D92C1900F1FF3302D2A04500F258
:1010C000B6801846A4EB080440EA0C409FE7C7F13D
:1010D000200CBB4022FA0CFE4EEA030E01FA07F484
:1010E00020FA0CF521FA0CF34FEA1E482543B3FB16
:1010F000F8F92C0C08FB19331FFA8EFA44EA034363
:1011000009FB0AF49C4202FA07F200FA07F10BD934
:101110001EEB030309F1FF3080F087809C4240F210
:101120008480A9F1020973441B1BADB2B3FBF8F034
:1011300008FB103345EA034400FB0AFAA24508D92C
:101140001EEB040400F1FF336BD2A24569D90238CB
:10115000744440EA0940A0FB0289A4EB0A044C4510
:10116000C2464B4654D351D0002E69D0B1EB0A058C
:1011700064EB030404FA0CFCFD40FC404CEA05055A
:10118000C6E90054002747E7C2F1200320FA03F71D
:10119000954001FA02F021FA03F34FEA154E384365
:1011A000010CB3FBFEF71FFA85F80EFB173341EA7B
:1011B000034107FB08F38B4204FA02F407D96918CC
:1011C00007F1FF3C2FD28B422DD9023F2944CB1A85
:1011D00081B2B3FBFEF00EFB103341EA034100FB8A
:1011E00008F38B4207D9691800F1FF3C17D28B42F4
:1011F00015D902382944C91A40EA07473BE7374660
:10120000304609E70746E7E61846FBE64145ABD21C
:10121000B8EB020A69EB0E0201381346A4E76046F8
:10122000E9E7184695E76746D1E781467CE702384B
:101230002C4447E7ACF1020C2B442FE7384608E773
:101240003746E9E6704700BF014B1868704700BF9A
:101250001000002030B5141E05469BB0184605DA74
:101260008B232B604FF0FF301BB030BD4FF4027367
:10127000ADF80C3014BF04F1FF33234602930593FD
:101280004FF6FF7300910491ADF80E3002461E9B9D
:101290006946284600F072F8431CBCBF8B232B60C4
:1012A000002CE1D0009B00221A70DDE707B5009307
:1012B00013460A46014603480068FFF7CBFF03B018
:1012C0005DF804FB100000202DE9F0478E689E4277
:1012D00082460C469046994637D88A8912F4906F18
:1012E00031D0256809696F1A6569022305EB450548
:1012F00095FBF3F509F101033B449D4238BF1D46C0
:10130000530530D5294600F07DFB064650B90C2325
:10131000CAF80030A38943F04003A3814FF0FF30A7
:10132000BDE8F0873A46216900F0FAFAA38923F470
:10133000906343F08003A381266165613E44ED1B09
:101340002660A5604E464E4500D94E46324641467F
:10135000206800F0F0FAA3689B1BA36023681E447A
:1013600026600020DCE72A4600F0A6FB064600289F
:10137000E2D12169504600F0F7FAC8E72DE9F04FB5
:101380009DB0804603938B891D060C4616460FD5EB
:101390000B696BB9402100F035FB2060206128B952
:1013A0000C23C8F800304FF0FF30C7E040236361E2
:1013B0000023099320238DF8293030238DF82A301B
:1013C0004FF0010B37463D4615F8013B0BB1252B7D
:1013D0003ED1B7EB060A0BD0534632462146404673
:1013E000FFF772FF013000F0A480099B534409937A
:1013F0003B78002B00F09D8000234FF0FF32CDE9B9
:101400000523049307938DF853301A932F46052232
:1014100017F8011B4F4800F033FA049BD0B9D906E6
:1014200044BF20228DF853201A0744BF2B228DF889
:1014300053202A782A2A15D0079A2F4600200A25F9
:10144000394611F8013B303B092B4DD9B8B10FE0BB
:101450002F46B8E73F4A801A0BFA00F01843049071
:101460003D46D3E7039A111D12680391002A01DB60
:10147000079204E0524243F00203079204933B7840
:101480002E2B0CD17B782A2B33D1039B1A1D1B6882
:101490000392002BB8BF4FF0FF33023705932E4D58
:1014A00039780322284600F0EBF938B14023401B7D
:1014B00003FA00F0049B034301370493397827486B
:1014C0008DF8281006227E1C00F0DAF9002838D0AA
:1014D000234B13BB039B073323F00703083303930A
:1014E000099B4B4409936DE705FB023201200F462F
:1014F000A6E700230137059319460A25384610F858
:10150000012B303A092A03D9002BC8D00591C6E730
:1015100005FB012101230746F0E703AB00932246B8
:10152000104B04A94046AFF30080B0F1FF3F814665
:10153000D6D1A3895B063FF536AF09981DB0BDE84B
:10154000F08F03AB00932246064B04A9404600F0FF
:1015500081F8EAE78C1C0008921C0008961C000821
:1015600000000000C91200082DE9F04791461F460F
:101570008A680B69DDF820809342B8BF1346C9F82A
:10158000003091F8432006460C4612B10133C9F8E9
:1015900000302368990642BFD9F800300233C9F8F9
:1015A0000030256815F0060507D104F1190AE36833
:1015B000D9F800209B1AAB4228DC94F8433022680B
:1015C000003318BF012392062DD404F1430239469B
:1015D0003046C047013020D02368E568D9F80020A4
:1015E00003F00603042B08BFAD1AA36822690CBFE1
:1015F00025EAE57500259342C4BF9B1AED184FF00C
:1016000000091A344D451AD1002008E00123524642
:1016100039463046C047013003D14FF0FF30BDE8B6
:10162000F0870135C3E7E1185A1C302081F84300E8
:10163000224494F8451082F843100233C5E7012391
:10164000224639463046C0470130E6D009F101094B
:10165000D8E700002DE9F04301F1430C0C46097E68
:1016600085B06E291746064698460C9A00F0B3805E
:1016700022D8632936D00AD8002900F0B980582929
:1016800000F0838004F1420584F8421032E06429BE
:1016900001D06929F6D120681368050603F1040119
:1016A0002AD51B681160002B03DA2D225B4284F8D7
:1016B00043206F480A2239E0732900F09D8008D842
:1016C0006F2920D07029DDD1236843F020032360E7
:1016D00003E0752917D07829D4D1782384F84530D0
:1016E000644855E01368191D1B68116004F1420538
:1016F00084F8423001238CE01B68116010F0400F29
:1017000018BF1BB2CFE713682568181D10602806A4
:1017100001D51B6802E06806FBD51B8854486F2979
:1017200014BF0A220822002184F843106568A560CE
:10173000002DC0F29580216821F004012160002B6A
:101740003DD1002D40F08E806546082A0BD12368DC
:10175000DB0708D5236962689A42DEBF302305F8AB
:10176000013C05F1FF35ACEB05032361CDF80080AA
:101770003B4603AA21463046FFF7F6FE01304DD125
:101780004FF0FF3005B0BDE8F083394884F84510CC
:10179000136821681D1D1B6815600A060BD5CA0752
:1017A00044BF41F0200121601BB9226822F02002D1
:1017B00022601022B7E74D0648BF9BB2EFE76546AF
:1017C000B3FBF2F102FB1133C35C05F8013D0B469C
:1017D0000029F5D1B9E7136825686169181D106003
:1017E00028061B6801D5196002E06A06FBD519803E
:1017F000002323616546B9E71368191D11601D6850
:1018000062680021284600F03BF808B1401B606088
:1018100063682361002384F84330A7E723692A46DD
:1018200039463046C0470130AAD023689B0713D4FD
:10183000E068039B9842B8BF1846A3E701234A46D5
:1018400039463046C04701309AD00135E368039AE3
:101850009B1AAB42F2DCEBE7002504F11909F5E72E
:10186000002BACD1037884F8423004F142056CE7D8
:101870009D1C0008AE1C00080000000000000000D5
:1018800001F0FF01102A2BDB10F0070F08D010F831
:10189000013B013A8B422DD010F0070F42B3F6D135
:1018A000F0B441EA012141EA014122F007047FF04E
:1018B00000070023F0E80256083C85EA010586EAA5
:1018C000010685FA47F5A3FA87F586FA47F6A5FAE1
:1018D00087F68EB9EED1F0BC01F0FF0102F00702ED
:1018E00032B110F8013B013A83EA010313B1F8D198
:1018F0000020704701387047002D06BF3546033879
:10190000073815F0010F07D1013015F4807F02BFB1
:10191000013015F4C03F0130F0BC0138704700BF02
:1019200010B5431E0A44914200D110BD11F8014B7D
:1019300003F8014FF7E7884210B501EB020307D81F
:10194000421E99420AD011F8014B02F8014FF8E704
:101950008342F5D98118D21AD34200D110BD13F8B1
:10196000014D01F8014DF7E738B50546002945D08E
:1019700051F8043C0C1F002BB8BFE41800F0D2F85B
:101980001F4A1368104633B9636014602846BDE8E7
:10199000384000F0C8B8A3420CD9216862189342BD
:1019A00004BF1A685B68636004BF52182260046059
:1019B000ECE713465A680AB1A242FAD919685818D6
:1019C000A0420BD120680144581882421960DDD131
:1019D000106852685A6001441960D7E702D90C2395
:1019E0002B60D3E7206821188A4204BF116852682F
:1019F000626004BF091821605C60C7E738BD00BFA2
:101A00003C01002070B5CD1C25F0030508350C2DD8
:101A100038BF0C25002D064601DBA94203D90C2353
:101A20003360002070BD00F07DF8214A1468214623
:101A300091B9204C23681BB9304600F063F8206050
:101A40002946304600F05EF8431C24D10C23336055
:101A5000304600F068F8E4E70B685B1B18D40B2BEA
:101A60000FD90B60CD50CC18304600F05CF804F173
:101A70000B00231D20F00700C31AD3D05A42E250B6
:101A8000D0E78C424B6816BF636013600C46EBE7EF
:101A90000C464968CCE7C41C24F00304A04205D0DE
:101AA000211A304600F02EF80130CFD02560DBE758
:101AB0003C01002040010020F8B5074614460E46C0
:101AC00021B91146BDE8F840FFF79CBF22B9FFF7E6
:101AD0004BFF25462846F8BD00F026F8A0420FD25D
:101AE00021463846FFF78EFF05460028F2D03146E2
:101AF0002246FFF715FF31463846FFF735FFE9E785
:101B00003546E7E738B5064C00230546084623600E
:101B1000FEF788FC431C02D1236803B12B6038BD5B
:101B2000440100207047704751F8043C181F002BF7
:101B3000BCBF0B58C0187047537461636B2066724A
:101B4000616D653A0A000000205230203D202025BA
:101B50003038580A00000000205231203D20202556
:101B60003038580A00000000205232203D20202545
:101B70003038580A00000000205233203D20202534
:101B80003038580A0000000020523132203D202514
:101B90003038580A00000000204C52203D202025FB
:101BA0003038580A00000000205043203D202025F6
:101BB0003038580A0000000020505352203D2025A4
:101BC0003038580A000000004653522F4641523A1E
:101BD0000A0000002043465352203D202025303883
:101BE000580A00002048465352203D202025303816
:101BF000580A00002044465352203D20202530380A
:101C0000580A00002041465352203D2020253038FC
:101C1000580A0000204D4D464152203D20253038C5
:101C2000580A00002042464152203D2020253038ED
:101C3000580A00004D6973630A000000204C522FBF
:101C40004558435F52455455524E3D202530385833
:101C50000A0000005B486172644661756C745D0A3D
:101C6000000000005B4275734661756C745D0A008C
:101C70005B55736167654661756C745D0A000000B1
:101C8000802500000000000002010000232D302B01
:101C90002000686C4C00656667454647003031326D
:101CA00033343536373839414243444546003031C4
:0F1CB00032333435363738396162636465660024
:081CC000B8F2FF7F01000000F3
:101CC80078563412800000200000000001FFFFFF5A
:101CD80014000020000000000000000000000000C8
:101CE80000000000000000000000000000000000EC
:101CF80000000000000000000000000000000000DC
:101D080000000000000000000000000000000000CB
:101D180000000000000000000000000000000000BB
:101D280000000000000000000000000000000000AB
:081D380000000000325476980F
:040000050800019559
:00000001FF
